{
	"contracts/Conditions.sol": {
		"MyContract": {
			"abi": [
				{
					"inputs": [],
					"name": "countEvenNumbers",
					"outputs": [
						{
							"internalType": "uint256",
							"name": "",
							"type": "uint256"
						}
					],
					"stateMutability": "view",
					"type": "function"
				},
				{
					"inputs": [
						{
							"internalType": "uint256",
							"name": "_number",
							"type": "uint256"
						}
					],
					"name": "isEvenNumber",
					"outputs": [
						{
							"internalType": "bool",
							"name": "",
							"type": "bool"
						}
					],
					"stateMutability": "view",
					"type": "function"
				},
				{
					"inputs": [
						{
							"internalType": "uint256",
							"name": "",
							"type": "uint256"
						}
					],
					"name": "numbers",
					"outputs": [
						{
							"internalType": "uint256",
							"name": "",
							"type": "uint256"
						}
					],
					"stateMutability": "view",
					"type": "function"
				}
			],
			"devdoc": {
				"methods": {}
			},
			"evm": {
				"assembly": "    /* \"contracts/Conditions.sol\":27:571  contract MyContract {\r... */\n  mstore(0x40, 0x80)\n    /* \"contracts/Conditions.sol\":55:110  uint[] public numbers = [1, 2, 3, 4, 5, 6, 7, 8, 9, 10] */\n  mload(0x40)\n  dup1\n  0x0140\n  add\n  0x40\n  mstore\n  dup1\n    /* \"contracts/Conditions.sol\":80:81  1 */\n  0x01\n    /* \"contracts/Conditions.sol\":55:110  uint[] public numbers = [1, 2, 3, 4, 5, 6, 7, 8, 9, 10] */\n  0xff\n  and\n  dup2\n  mstore\n  0x20\n  add\n    /* \"contracts/Conditions.sol\":83:84  2 */\n  0x02\n    /* \"contracts/Conditions.sol\":55:110  uint[] public numbers = [1, 2, 3, 4, 5, 6, 7, 8, 9, 10] */\n  0xff\n  and\n  dup2\n  mstore\n  0x20\n  add\n    /* \"contracts/Conditions.sol\":86:87  3 */\n  0x03\n    /* \"contracts/Conditions.sol\":55:110  uint[] public numbers = [1, 2, 3, 4, 5, 6, 7, 8, 9, 10] */\n  0xff\n  and\n  dup2\n  mstore\n  0x20\n  add\n    /* \"contracts/Conditions.sol\":89:90  4 */\n  0x04\n    /* \"contracts/Conditions.sol\":55:110  uint[] public numbers = [1, 2, 3, 4, 5, 6, 7, 8, 9, 10] */\n  0xff\n  and\n  dup2\n  mstore\n  0x20\n  add\n    /* \"contracts/Conditions.sol\":92:93  5 */\n  0x05\n    /* \"contracts/Conditions.sol\":55:110  uint[] public numbers = [1, 2, 3, 4, 5, 6, 7, 8, 9, 10] */\n  0xff\n  and\n  dup2\n  mstore\n  0x20\n  add\n    /* \"contracts/Conditions.sol\":95:96  6 */\n  0x06\n    /* \"contracts/Conditions.sol\":55:110  uint[] public numbers = [1, 2, 3, 4, 5, 6, 7, 8, 9, 10] */\n  0xff\n  and\n  dup2\n  mstore\n  0x20\n  add\n    /* \"contracts/Conditions.sol\":98:99  7 */\n  0x07\n    /* \"contracts/Conditions.sol\":55:110  uint[] public numbers = [1, 2, 3, 4, 5, 6, 7, 8, 9, 10] */\n  0xff\n  and\n  dup2\n  mstore\n  0x20\n  add\n    /* \"contracts/Conditions.sol\":101:102  8 */\n  0x08\n    /* \"contracts/Conditions.sol\":55:110  uint[] public numbers = [1, 2, 3, 4, 5, 6, 7, 8, 9, 10] */\n  0xff\n  and\n  dup2\n  mstore\n  0x20\n  add\n    /* \"contracts/Conditions.sol\":104:105  9 */\n  0x09\n    /* \"contracts/Conditions.sol\":55:110  uint[] public numbers = [1, 2, 3, 4, 5, 6, 7, 8, 9, 10] */\n  0xff\n  and\n  dup2\n  mstore\n  0x20\n  add\n    /* \"contracts/Conditions.sol\":107:109  10 */\n  0x0a\n    /* \"contracts/Conditions.sol\":55:110  uint[] public numbers = [1, 2, 3, 4, 5, 6, 7, 8, 9, 10] */\n  0xff\n  and\n  dup2\n  mstore\n  pop\n  0x00\n  swap1\n  0x0a\n  tag_1\n  swap3\n  swap2\n  swap1\n  tag_2\n  jump\t// in\ntag_1:\n  pop\n    /* \"contracts/Conditions.sol\":27:571  contract MyContract {\r... */\n  callvalue\n    /* \"--CODEGEN--\":8:17   */\n  dup1\n    /* \"--CODEGEN--\":5:7   */\n  iszero\n  tag_3\n  jumpi\n    /* \"--CODEGEN--\":30:31   */\n  0x00\n    /* \"--CODEGEN--\":27:28   */\n  dup1\n    /* \"--CODEGEN--\":20:32   */\n  revert\n    /* \"--CODEGEN--\":5:7   */\ntag_3:\n    /* \"contracts/Conditions.sol\":27:571  contract MyContract {\r... */\n  pop\n  jump(tag_4)\ntag_2:\n  dup3\n  dup1\n  sload\n  dup3\n  dup3\n  sstore\n  swap1\n  0x00\n  mstore\n  keccak256(0x00, 0x20)\n  swap1\n  dup2\n  add\n  swap3\n  dup3\n  iszero\n  tag_5\n  jumpi\n  swap2\n  0x20\n  mul\n  dup3\n  add\ntag_6:\n  dup3\n  dup2\n  gt\n  iszero\n  tag_7\n  jumpi\n  dup3\n  mload\n  dup3\n  swap1\n  0xff\n  and\n  swap1\n  sstore\n  swap2\n  0x20\n  add\n  swap2\n  swap1\n  0x01\n  add\n  swap1\n  jump(tag_6)\ntag_7:\ntag_5:\n  pop\n  swap1\n  pop\n  tag_8\n  swap2\n  swap1\n  tag_9\n  jump\t// in\ntag_8:\n  pop\n  swap1\n  jump\t// out\ntag_9:\n  tag_10\n  swap2\n  swap1\ntag_11:\n  dup1\n  dup3\n  gt\n  iszero\n  tag_12\n  jumpi\n  0x00\n  dup2\n  0x00\n  swap1\n  sstore\n  pop\n  0x01\n  add\n  jump(tag_11)\ntag_12:\n  pop\n  swap1\n  jump\ntag_10:\n  swap1\n  jump\t// out\ntag_4:\n  dataSize(sub_0)\n  dup1\n  dataOffset(sub_0)\n  0x00\n  codecopy\n  0x00\n  return\nstop\n\nsub_0: assembly {\n        /* \"contracts/Conditions.sol\":27:571  contract MyContract {\r... */\n      mstore(0x40, 0x80)\n      callvalue\n        /* \"--CODEGEN--\":8:17   */\n      dup1\n        /* \"--CODEGEN--\":5:7   */\n      iszero\n      tag_1\n      jumpi\n        /* \"--CODEGEN--\":30:31   */\n      0x00\n        /* \"--CODEGEN--\":27:28   */\n      dup1\n        /* \"--CODEGEN--\":20:32   */\n      revert\n        /* \"--CODEGEN--\":5:7   */\n    tag_1:\n        /* \"contracts/Conditions.sol\":27:571  contract MyContract {\r... */\n      pop\n      jumpi(tag_2, lt(calldatasize, 0x04))\n      shr(0xe0, calldataload(0x00))\n      dup1\n      0x306d3e02\n      eq\n      tag_3\n      jumpi\n      dup1\n      0xd39fa233\n      eq\n      tag_4\n      jumpi\n      dup1\n      0xe5054c69\n      eq\n      tag_5\n      jumpi\n    tag_2:\n      0x00\n      dup1\n      revert\n        /* \"contracts/Conditions.sol\":121:374  function countEvenNumbers() public view returns(uint) {\r... */\n    tag_3:\n      tag_6\n      tag_7\n      jump\t// in\n    tag_6:\n      mload(0x40)\n      dup1\n      dup3\n      dup2\n      mstore\n      0x20\n      add\n      swap2\n      pop\n      pop\n      mload(0x40)\n      dup1\n      swap2\n      sub\n      swap1\n      return\n        /* \"contracts/Conditions.sol\":55:110  uint[] public numbers = [1, 2, 3, 4, 5, 6, 7, 8, 9, 10] */\n    tag_4:\n      tag_8\n      0x04\n      dup1\n      calldatasize\n      sub\n        /* \"--CODEGEN--\":13:15   */\n      0x20\n        /* \"--CODEGEN--\":8:11   */\n      dup2\n        /* \"--CODEGEN--\":5:16   */\n      lt\n        /* \"--CODEGEN--\":2:4   */\n      iszero\n      tag_9\n      jumpi\n        /* \"--CODEGEN--\":29:30   */\n      0x00\n        /* \"--CODEGEN--\":26:27   */\n      dup1\n        /* \"--CODEGEN--\":19:31   */\n      revert\n        /* \"--CODEGEN--\":2:4   */\n    tag_9:\n        /* \"contracts/Conditions.sol\":55:110  uint[] public numbers = [1, 2, 3, 4, 5, 6, 7, 8, 9, 10] */\n      dup2\n      add\n      swap1\n      dup1\n      dup1\n      calldataload\n      swap1\n      0x20\n      add\n      swap1\n      swap3\n      swap2\n      swap1\n      pop\n      pop\n      pop\n      tag_10\n      jump\t// in\n    tag_8:\n      mload(0x40)\n      dup1\n      dup3\n      dup2\n      mstore\n      0x20\n      add\n      swap2\n      pop\n      pop\n      mload(0x40)\n      dup1\n      swap2\n      sub\n      swap1\n      return\n        /* \"contracts/Conditions.sol\":382:567  function isEvenNumber(uint _number) public view returns (bool) {\r... */\n    tag_5:\n      tag_11\n      0x04\n      dup1\n      calldatasize\n      sub\n        /* \"--CODEGEN--\":13:15   */\n      0x20\n        /* \"--CODEGEN--\":8:11   */\n      dup2\n        /* \"--CODEGEN--\":5:16   */\n      lt\n        /* \"--CODEGEN--\":2:4   */\n      iszero\n      tag_12\n      jumpi\n        /* \"--CODEGEN--\":29:30   */\n      0x00\n        /* \"--CODEGEN--\":26:27   */\n      dup1\n        /* \"--CODEGEN--\":19:31   */\n      revert\n        /* \"--CODEGEN--\":2:4   */\n    tag_12:\n        /* \"contracts/Conditions.sol\":382:567  function isEvenNumber(uint _number) public view returns (bool) {\r... */\n      dup2\n      add\n      swap1\n      dup1\n      dup1\n      calldataload\n      swap1\n      0x20\n      add\n      swap1\n      swap3\n      swap2\n      swap1\n      pop\n      pop\n      pop\n      tag_13\n      jump\t// in\n    tag_11:\n      mload(0x40)\n      dup1\n      dup3\n      iszero\n      iszero\n      iszero\n      iszero\n      dup2\n      mstore\n      0x20\n      add\n      swap2\n      pop\n      pop\n      mload(0x40)\n      dup1\n      swap2\n      sub\n      swap1\n      return\n        /* \"contracts/Conditions.sol\":121:374  function countEvenNumbers() public view returns(uint) {\r... */\n    tag_7:\n        /* \"contracts/Conditions.sol\":169:173  uint */\n      0x00\n        /* \"contracts/Conditions.sol\":185:195  uint count */\n      dup1\n        /* \"contracts/Conditions.sol\":198:199  0 */\n      0x00\n        /* \"contracts/Conditions.sol\":185:199  uint count = 0 */\n      swap1\n      pop\n        /* \"contracts/Conditions.sol\":215:221  uint i */\n      0x00\n        /* \"contracts/Conditions.sol\":224:225  0 */\n      dup1\n        /* \"contracts/Conditions.sol\":215:225  uint i = 0 */\n      swap1\n      pop\n        /* \"contracts/Conditions.sol\":211:346  for(uint i = 0; i < numbers.length; i++) {\r... */\n    tag_15:\n        /* \"contracts/Conditions.sol\":231:238  numbers */\n      0x00\n        /* \"contracts/Conditions.sol\":231:245  numbers.length */\n      dup1\n      sload\n      swap1\n      pop\n        /* \"contracts/Conditions.sol\":227:228  i */\n      dup2\n        /* \"contracts/Conditions.sol\":227:245  i < numbers.length */\n      lt\n        /* \"contracts/Conditions.sol\":211:346  for(uint i = 0; i < numbers.length; i++) {\r... */\n      iszero\n      tag_16\n      jumpi\n        /* \"contracts/Conditions.sol\":269:293  isEvenNumber(numbers[i]) */\n      tag_18\n        /* \"contracts/Conditions.sol\":282:289  numbers */\n      0x00\n        /* \"contracts/Conditions.sol\":290:291  i */\n      dup3\n        /* \"contracts/Conditions.sol\":282:292  numbers[i] */\n      dup2\n      sload\n      dup2\n      lt\n      tag_19\n      jumpi\n      invalid\n    tag_19:\n      swap1\n      0x00\n      mstore\n      keccak256(0x00, 0x20)\n      add\n      sload\n        /* \"contracts/Conditions.sol\":269:281  isEvenNumber */\n      tag_13\n        /* \"contracts/Conditions.sol\":269:293  isEvenNumber(numbers[i]) */\n      jump\t// in\n    tag_18:\n        /* \"contracts/Conditions.sol\":266:336  if(isEvenNumber(numbers[i])) {\r... */\n      iszero\n      tag_21\n      jumpi\n        /* \"contracts/Conditions.sol\":313:321  count ++ */\n      dup2\n      dup1\n      0x01\n      add\n      swap3\n      pop\n      pop\n        /* \"contracts/Conditions.sol\":266:336  if(isEvenNumber(numbers[i])) {\r... */\n    tag_21:\n        /* \"contracts/Conditions.sol\":247:250  i++ */\n      dup1\n      dup1\n      0x01\n      add\n      swap2\n      pop\n      pop\n        /* \"contracts/Conditions.sol\":211:346  for(uint i = 0; i < numbers.length; i++) {\r... */\n      jump(tag_15)\n    tag_16:\n      pop\n        /* \"contracts/Conditions.sol\":362:367  count */\n      dup1\n        /* \"contracts/Conditions.sol\":355:367  return count */\n      swap2\n      pop\n      pop\n        /* \"contracts/Conditions.sol\":121:374  function countEvenNumbers() public view returns(uint) {\r... */\n      swap1\n      jump\t// out\n        /* \"contracts/Conditions.sol\":55:110  uint[] public numbers = [1, 2, 3, 4, 5, 6, 7, 8, 9, 10] */\n    tag_10:\n      0x00\n      dup2\n      dup2\n      sload\n      dup2\n      lt\n      tag_22\n      jumpi\n      invalid\n    tag_22:\n      swap1\n      0x00\n      mstore\n      keccak256(0x00, 0x20)\n      add\n      0x00\n      swap2\n      pop\n      swap1\n      pop\n      sload\n      dup2\n      jump\t// out\n        /* \"contracts/Conditions.sol\":382:567  function isEvenNumber(uint _number) public view returns (bool) {\r... */\n    tag_13:\n        /* \"contracts/Conditions.sol\":439:443  bool */\n      0x00\n        /* \"contracts/Conditions.sol\":474:475  0 */\n      dup1\n        /* \"contracts/Conditions.sol\":469:470  2 */\n      0x02\n        /* \"contracts/Conditions.sol\":459:466  _number */\n      dup4\n        /* \"contracts/Conditions.sol\":459:470  _number % 2 */\n      dup2\n      tag_25\n      jumpi\n      invalid\n    tag_25:\n      mod\n        /* \"contracts/Conditions.sol\":459:475  _number % 2 == 0 */\n      eq\n        /* \"contracts/Conditions.sol\":456:560  if(_number % 2 == 0) {\r... */\n      iszero\n      tag_26\n      jumpi\n        /* \"contracts/Conditions.sol\":499:503  true */\n      0x01\n        /* \"contracts/Conditions.sol\":492:503  return true */\n      swap1\n      pop\n      jump(tag_24)\n        /* \"contracts/Conditions.sol\":456:560  if(_number % 2 == 0) {\r... */\n    tag_26:\n        /* \"contracts/Conditions.sol\":543:548  false */\n      0x00\n        /* \"contracts/Conditions.sol\":536:548  return false */\n      swap1\n      pop\n        /* \"contracts/Conditions.sol\":382:567  function isEvenNumber(uint _number) public view returns (bool) {\r... */\n    tag_24:\n      swap2\n      swap1\n      pop\n      jump\t// out\n\n    auxdata: 0xa2646970667358221220d2c9fbfb384bc554d938225005e95e38a9e8b2abc9b5e833405854b3d858de0e64736f6c63430006000033\n}\n",
				"bytecode": {
					"linkReferences": {},
					"object": "6080604052604051806101400160405280600160ff168152602001600260ff168152602001600360ff168152602001600460ff168152602001600560ff168152602001600660ff168152602001600760ff168152602001600860ff168152602001600960ff168152602001600a60ff16815250600090600a610082929190610095565b5034801561008f57600080fd5b5061010c565b8280548282559060005260206000209081019282156100d6579160200282015b828111156100d5578251829060ff169055916020019190600101906100b5565b5b5090506100e391906100e7565b5090565b61010991905b808211156101055760008160009055506001016100ed565b5090565b90565b6101c78061011b6000396000f3fe608060405234801561001057600080fd5b50600436106100415760003560e01c8063306d3e0214610046578063d39fa23314610064578063e5054c69146100a6575b600080fd5b61004e6100ec565b6040518082815260200191505060405180910390f35b6100906004803603602081101561007a57600080fd5b8101908080359060200190929190505050610149565b6040518082815260200191505060405180910390f35b6100d2600480360360208110156100bc57600080fd5b810190808035906020019092919050505061016a565b604051808215151515815260200191505060405180910390f35b6000806000905060008090505b600080549050811015610141576101266000828154811061011657fe5b906000526020600020015461016a565b156101345781806001019250505b80806001019150506100f9565b508091505090565b6000818154811061015657fe5b906000526020600020016000915090505481565b6000806002838161017757fe5b061415610187576001905061018c565b600090505b91905056fea2646970667358221220d2c9fbfb384bc554d938225005e95e38a9e8b2abc9b5e833405854b3d858de0e64736f6c63430006000033",
					"opcodes": "PUSH1 0x80 PUSH1 0x40 MSTORE PUSH1 0x40 MLOAD DUP1 PUSH2 0x140 ADD PUSH1 0x40 MSTORE DUP1 PUSH1 0x1 PUSH1 0xFF AND DUP2 MSTORE PUSH1 0x20 ADD PUSH1 0x2 PUSH1 0xFF AND DUP2 MSTORE PUSH1 0x20 ADD PUSH1 0x3 PUSH1 0xFF AND DUP2 MSTORE PUSH1 0x20 ADD PUSH1 0x4 PUSH1 0xFF AND DUP2 MSTORE PUSH1 0x20 ADD PUSH1 0x5 PUSH1 0xFF AND DUP2 MSTORE PUSH1 0x20 ADD PUSH1 0x6 PUSH1 0xFF AND DUP2 MSTORE PUSH1 0x20 ADD PUSH1 0x7 PUSH1 0xFF AND DUP2 MSTORE PUSH1 0x20 ADD PUSH1 0x8 PUSH1 0xFF AND DUP2 MSTORE PUSH1 0x20 ADD PUSH1 0x9 PUSH1 0xFF AND DUP2 MSTORE PUSH1 0x20 ADD PUSH1 0xA PUSH1 0xFF AND DUP2 MSTORE POP PUSH1 0x0 SWAP1 PUSH1 0xA PUSH2 0x82 SWAP3 SWAP2 SWAP1 PUSH2 0x95 JUMP JUMPDEST POP CALLVALUE DUP1 ISZERO PUSH2 0x8F JUMPI PUSH1 0x0 DUP1 REVERT JUMPDEST POP PUSH2 0x10C JUMP JUMPDEST DUP3 DUP1 SLOAD DUP3 DUP3 SSTORE SWAP1 PUSH1 0x0 MSTORE PUSH1 0x20 PUSH1 0x0 KECCAK256 SWAP1 DUP2 ADD SWAP3 DUP3 ISZERO PUSH2 0xD6 JUMPI SWAP2 PUSH1 0x20 MUL DUP3 ADD JUMPDEST DUP3 DUP2 GT ISZERO PUSH2 0xD5 JUMPI DUP3 MLOAD DUP3 SWAP1 PUSH1 0xFF AND SWAP1 SSTORE SWAP2 PUSH1 0x20 ADD SWAP2 SWAP1 PUSH1 0x1 ADD SWAP1 PUSH2 0xB5 JUMP JUMPDEST JUMPDEST POP SWAP1 POP PUSH2 0xE3 SWAP2 SWAP1 PUSH2 0xE7 JUMP JUMPDEST POP SWAP1 JUMP JUMPDEST PUSH2 0x109 SWAP2 SWAP1 JUMPDEST DUP1 DUP3 GT ISZERO PUSH2 0x105 JUMPI PUSH1 0x0 DUP2 PUSH1 0x0 SWAP1 SSTORE POP PUSH1 0x1 ADD PUSH2 0xED JUMP JUMPDEST POP SWAP1 JUMP JUMPDEST SWAP1 JUMP JUMPDEST PUSH2 0x1C7 DUP1 PUSH2 0x11B PUSH1 0x0 CODECOPY PUSH1 0x0 RETURN INVALID PUSH1 0x80 PUSH1 0x40 MSTORE CALLVALUE DUP1 ISZERO PUSH2 0x10 JUMPI PUSH1 0x0 DUP1 REVERT JUMPDEST POP PUSH1 0x4 CALLDATASIZE LT PUSH2 0x41 JUMPI PUSH1 0x0 CALLDATALOAD PUSH1 0xE0 SHR DUP1 PUSH4 0x306D3E02 EQ PUSH2 0x46 JUMPI DUP1 PUSH4 0xD39FA233 EQ PUSH2 0x64 JUMPI DUP1 PUSH4 0xE5054C69 EQ PUSH2 0xA6 JUMPI JUMPDEST PUSH1 0x0 DUP1 REVERT JUMPDEST PUSH2 0x4E PUSH2 0xEC JUMP JUMPDEST PUSH1 0x40 MLOAD DUP1 DUP3 DUP2 MSTORE PUSH1 0x20 ADD SWAP2 POP POP PUSH1 0x40 MLOAD DUP1 SWAP2 SUB SWAP1 RETURN JUMPDEST PUSH2 0x90 PUSH1 0x4 DUP1 CALLDATASIZE SUB PUSH1 0x20 DUP2 LT ISZERO PUSH2 0x7A JUMPI PUSH1 0x0 DUP1 REVERT JUMPDEST DUP2 ADD SWAP1 DUP1 DUP1 CALLDATALOAD SWAP1 PUSH1 0x20 ADD SWAP1 SWAP3 SWAP2 SWAP1 POP POP POP PUSH2 0x149 JUMP JUMPDEST PUSH1 0x40 MLOAD DUP1 DUP3 DUP2 MSTORE PUSH1 0x20 ADD SWAP2 POP POP PUSH1 0x40 MLOAD DUP1 SWAP2 SUB SWAP1 RETURN JUMPDEST PUSH2 0xD2 PUSH1 0x4 DUP1 CALLDATASIZE SUB PUSH1 0x20 DUP2 LT ISZERO PUSH2 0xBC JUMPI PUSH1 0x0 DUP1 REVERT JUMPDEST DUP2 ADD SWAP1 DUP1 DUP1 CALLDATALOAD SWAP1 PUSH1 0x20 ADD SWAP1 SWAP3 SWAP2 SWAP1 POP POP POP PUSH2 0x16A JUMP JUMPDEST PUSH1 0x40 MLOAD DUP1 DUP3 ISZERO ISZERO ISZERO ISZERO DUP2 MSTORE PUSH1 0x20 ADD SWAP2 POP POP PUSH1 0x40 MLOAD DUP1 SWAP2 SUB SWAP1 RETURN JUMPDEST PUSH1 0x0 DUP1 PUSH1 0x0 SWAP1 POP PUSH1 0x0 DUP1 SWAP1 POP JUMPDEST PUSH1 0x0 DUP1 SLOAD SWAP1 POP DUP2 LT ISZERO PUSH2 0x141 JUMPI PUSH2 0x126 PUSH1 0x0 DUP3 DUP2 SLOAD DUP2 LT PUSH2 0x116 JUMPI INVALID JUMPDEST SWAP1 PUSH1 0x0 MSTORE PUSH1 0x20 PUSH1 0x0 KECCAK256 ADD SLOAD PUSH2 0x16A JUMP JUMPDEST ISZERO PUSH2 0x134 JUMPI DUP2 DUP1 PUSH1 0x1 ADD SWAP3 POP POP JUMPDEST DUP1 DUP1 PUSH1 0x1 ADD SWAP2 POP POP PUSH2 0xF9 JUMP JUMPDEST POP DUP1 SWAP2 POP POP SWAP1 JUMP JUMPDEST PUSH1 0x0 DUP2 DUP2 SLOAD DUP2 LT PUSH2 0x156 JUMPI INVALID JUMPDEST SWAP1 PUSH1 0x0 MSTORE PUSH1 0x20 PUSH1 0x0 KECCAK256 ADD PUSH1 0x0 SWAP2 POP SWAP1 POP SLOAD DUP2 JUMP JUMPDEST PUSH1 0x0 DUP1 PUSH1 0x2 DUP4 DUP2 PUSH2 0x177 JUMPI INVALID JUMPDEST MOD EQ ISZERO PUSH2 0x187 JUMPI PUSH1 0x1 SWAP1 POP PUSH2 0x18C JUMP JUMPDEST PUSH1 0x0 SWAP1 POP JUMPDEST SWAP2 SWAP1 POP JUMP INVALID LOG2 PUSH5 0x6970667358 0x22 SLT KECCAK256 0xD2 0xC9 0xFB 0xFB CODESIZE 0x4B 0xC5 SLOAD 0xD9 CODESIZE 0x22 POP SDIV 0xE9 0x5E CODESIZE 0xA9 0xE8 0xB2 0xAB 0xC9 0xB5 0xE8 CALLER BLOCKHASH PC SLOAD 0xB3 0xD8 PC 0xDE 0xE PUSH5 0x736F6C6343 STOP MOD STOP STOP CALLER "
				},
				"gasEstimates": {
					"creation": {
						"codeDepositCost": "91000",
						"executionCost": "infinite",
						"totalCost": "infinite"
					},
					"external": {
						"countEvenNumbers()": "infinite",
						"isEvenNumber(uint256)": "396",
						"numbers(uint256)": "1980"
					}
				},
				"methodIdentifiers": {
					"countEvenNumbers()": "306d3e02",
					"isEvenNumber(uint256)": "e5054c69",
					"numbers(uint256)": "d39fa233"
				}
			},
			"userdoc": {
				"methods": {}
			}
		}
	}
}