{
	"contracts/dapp.sol": {
		"Counter": {
			"abi": [
				{
					"inputs": [],
					"name": "count",
					"outputs": [
						{
							"internalType": "uint256",
							"name": "",
							"type": "uint256"
						}
					],
					"stateMutability": "view",
					"type": "function"
				},
				{
					"inputs": [],
					"name": "incrementCount",
					"outputs": [],
					"stateMutability": "nonpayable",
					"type": "function"
				}
			],
			"devdoc": {
				"methods": {}
			},
			"evm": {
				"assembly": "    /* \"contracts/dapp.sol\":27:157  contract Counter {\r... */\n  mstore(0x40, 0x80)\n    /* \"contracts/dapp.sol\":71:72  0 */\n  0x00\n    /* \"contracts/dapp.sol\":51:72  uint public count = 0 */\n  dup1\n  sstore\n    /* \"contracts/dapp.sol\":27:157  contract Counter {\r... */\n  callvalue\n    /* \"--CODEGEN--\":8:17   */\n  dup1\n    /* \"--CODEGEN--\":5:7   */\n  iszero\n  tag_1\n  jumpi\n    /* \"--CODEGEN--\":30:31   */\n  0x00\n    /* \"--CODEGEN--\":27:28   */\n  dup1\n    /* \"--CODEGEN--\":20:32   */\n  revert\n    /* \"--CODEGEN--\":5:7   */\ntag_1:\n    /* \"contracts/dapp.sol\":27:157  contract Counter {\r... */\n  pop\n  dataSize(sub_0)\n  dup1\n  dataOffset(sub_0)\n  0x00\n  codecopy\n  0x00\n  return\nstop\n\nsub_0: assembly {\n        /* \"contracts/dapp.sol\":27:157  contract Counter {\r... */\n      mstore(0x40, 0x80)\n      callvalue\n        /* \"--CODEGEN--\":8:17   */\n      dup1\n        /* \"--CODEGEN--\":5:7   */\n      iszero\n      tag_1\n      jumpi\n        /* \"--CODEGEN--\":30:31   */\n      0x00\n        /* \"--CODEGEN--\":27:28   */\n      dup1\n        /* \"--CODEGEN--\":20:32   */\n      revert\n        /* \"--CODEGEN--\":5:7   */\n    tag_1:\n        /* \"contracts/dapp.sol\":27:157  contract Counter {\r... */\n      pop\n      jumpi(tag_2, lt(calldatasize, 0x04))\n      shr(0xe0, calldataload(0x00))\n      dup1\n      0x06661abd\n      eq\n      tag_3\n      jumpi\n      dup1\n      0xe5071b8e\n      eq\n      tag_4\n      jumpi\n    tag_2:\n      0x00\n      dup1\n      revert\n        /* \"contracts/dapp.sol\":51:72  uint public count = 0 */\n    tag_3:\n      tag_5\n      tag_6\n      jump\t// in\n    tag_5:\n      mload(0x40)\n      dup1\n      dup3\n      dup2\n      mstore\n      0x20\n      add\n      swap2\n      pop\n      pop\n      mload(0x40)\n      dup1\n      swap2\n      sub\n      swap1\n      return\n        /* \"contracts/dapp.sol\":85:154  function incrementCount() public {\r... */\n    tag_4:\n      tag_7\n      tag_8\n      jump\t// in\n    tag_7:\n      stop\n        /* \"contracts/dapp.sol\":51:72  uint public count = 0 */\n    tag_6:\n      sload(0x00)\n      dup2\n      jump\t// out\n        /* \"contracts/dapp.sol\":85:154  function incrementCount() public {\r... */\n    tag_8:\n        /* \"contracts/dapp.sol\":145:146  1 */\n      0x01\n        /* \"contracts/dapp.sol\":137:142  count */\n      sload(0x00)\n        /* \"contracts/dapp.sol\":137:146  count + 1 */\n      add\n        /* \"contracts/dapp.sol\":129:134  count */\n      0x00\n        /* \"contracts/dapp.sol\":129:146  count = count + 1 */\n      dup2\n      swap1\n      sstore\n      pop\n        /* \"contracts/dapp.sol\":85:154  function incrementCount() public {\r... */\n      jump\t// out\n\n    auxdata: 0xa2646970667358221220cb727735c18b09ee452ae3f605454fcacdbb1483e658227436e8ce11b408d98664736f6c63430006010033\n}\n",
				"bytecode": {
					"linkReferences": {},
					"object": "608060405260008055348015601357600080fd5b5060a5806100226000396000f3fe6080604052348015600f57600080fd5b506004361060325760003560e01c806306661abd146037578063e5071b8e146053575b600080fd5b603d605b565b6040518082815260200191505060405180910390f35b60596061565b005b60005481565b60016000540160008190555056fea2646970667358221220cb727735c18b09ee452ae3f605454fcacdbb1483e658227436e8ce11b408d98664736f6c63430006010033",
					"opcodes": "PUSH1 0x80 PUSH1 0x40 MSTORE PUSH1 0x0 DUP1 SSTORE CALLVALUE DUP1 ISZERO PUSH1 0x13 JUMPI PUSH1 0x0 DUP1 REVERT JUMPDEST POP PUSH1 0xA5 DUP1 PUSH2 0x22 PUSH1 0x0 CODECOPY PUSH1 0x0 RETURN INVALID PUSH1 0x80 PUSH1 0x40 MSTORE CALLVALUE DUP1 ISZERO PUSH1 0xF JUMPI PUSH1 0x0 DUP1 REVERT JUMPDEST POP PUSH1 0x4 CALLDATASIZE LT PUSH1 0x32 JUMPI PUSH1 0x0 CALLDATALOAD PUSH1 0xE0 SHR DUP1 PUSH4 0x6661ABD EQ PUSH1 0x37 JUMPI DUP1 PUSH4 0xE5071B8E EQ PUSH1 0x53 JUMPI JUMPDEST PUSH1 0x0 DUP1 REVERT JUMPDEST PUSH1 0x3D PUSH1 0x5B JUMP JUMPDEST PUSH1 0x40 MLOAD DUP1 DUP3 DUP2 MSTORE PUSH1 0x20 ADD SWAP2 POP POP PUSH1 0x40 MLOAD DUP1 SWAP2 SUB SWAP1 RETURN JUMPDEST PUSH1 0x59 PUSH1 0x61 JUMP JUMPDEST STOP JUMPDEST PUSH1 0x0 SLOAD DUP2 JUMP JUMPDEST PUSH1 0x1 PUSH1 0x0 SLOAD ADD PUSH1 0x0 DUP2 SWAP1 SSTORE POP JUMP INVALID LOG2 PUSH5 0x6970667358 0x22 SLT KECCAK256 0xCB PUSH19 0x7735C18B09EE452AE3F605454FCACDBB1483E6 PC 0x22 PUSH21 0x36E8CE11B408D98664736F6C634300060100330000 "
				},
				"gasEstimates": {
					"creation": {
						"codeDepositCost": "33000",
						"executionCost": "5093",
						"totalCost": "38093"
					},
					"external": {
						"count()": "983",
						"incrementCount()": "20964"
					}
				},
				"methodIdentifiers": {
					"count()": "06661abd",
					"incrementCount()": "e5071b8e"
				}
			},
			"userdoc": {
				"methods": {}
			}
		}
	}
}