{
	"contracts/dapp.sol": {
		"Counter": {
			"abi": [
				{
					"inputs": [],
					"stateMutability": "nonpayable",
					"type": "constructor"
				},
				{
					"inputs": [],
					"name": "getCount",
					"outputs": [
						{
							"internalType": "uint256",
							"name": "",
							"type": "uint256"
						}
					],
					"stateMutability": "view",
					"type": "function"
				},
				{
					"inputs": [],
					"name": "incrementCount",
					"outputs": [],
					"stateMutability": "nonpayable",
					"type": "function"
				}
			],
			"devdoc": {
				"methods": {}
			},
			"evm": {
				"assembly": "    /* \"contracts/dapp.sol\":27:280  contract Counter {\r... */\n  mstore(0x40, 0x80)\n    /* \"contracts/dapp.sol\":68:117  constructor() public {\r... */\n  callvalue\n    /* \"--CODEGEN--\":8:17   */\n  dup1\n    /* \"--CODEGEN--\":5:7   */\n  iszero\n  tag_1\n  jumpi\n    /* \"--CODEGEN--\":30:31   */\n  0x00\n    /* \"--CODEGEN--\":27:28   */\n  dup1\n    /* \"--CODEGEN--\":20:32   */\n  revert\n    /* \"--CODEGEN--\":5:7   */\ntag_1:\n    /* \"contracts/dapp.sol\":68:117  constructor() public {\r... */\n  pop\n    /* \"contracts/dapp.sol\":108:109  0 */\n  0x00\n    /* \"contracts/dapp.sol\":100:105  count */\n  dup1\n    /* \"contracts/dapp.sol\":100:109  count = 0 */\n  dup2\n  swap1\n  sstore\n  pop\n    /* \"contracts/dapp.sol\":27:280  contract Counter {\r... */\n  dataSize(sub_0)\n  dup1\n  dataOffset(sub_0)\n  0x00\n  codecopy\n  0x00\n  return\nstop\n\nsub_0: assembly {\n        /* \"contracts/dapp.sol\":27:280  contract Counter {\r... */\n      mstore(0x40, 0x80)\n      callvalue\n        /* \"--CODEGEN--\":8:17   */\n      dup1\n        /* \"--CODEGEN--\":5:7   */\n      iszero\n      tag_1\n      jumpi\n        /* \"--CODEGEN--\":30:31   */\n      0x00\n        /* \"--CODEGEN--\":27:28   */\n      dup1\n        /* \"--CODEGEN--\":20:32   */\n      revert\n        /* \"--CODEGEN--\":5:7   */\n    tag_1:\n        /* \"contracts/dapp.sol\":27:280  contract Counter {\r... */\n      pop\n      jumpi(tag_2, lt(calldatasize, 0x04))\n      shr(0xe0, calldataload(0x00))\n      dup1\n      0xa87d942c\n      eq\n      tag_3\n      jumpi\n      dup1\n      0xe5071b8e\n      eq\n      tag_4\n      jumpi\n    tag_2:\n      0x00\n      dup1\n      revert\n        /* \"contracts/dapp.sol\":123:200  function getCount() public view returns(uint) {\r... */\n    tag_3:\n      tag_5\n      tag_6\n      jump\t// in\n    tag_5:\n      mload(0x40)\n      dup1\n      dup3\n      dup2\n      mstore\n      0x20\n      add\n      swap2\n      pop\n      pop\n      mload(0x40)\n      dup1\n      swap2\n      sub\n      swap1\n      return\n        /* \"contracts/dapp.sol\":208:277  function incrementCount() public {\r... */\n    tag_4:\n      tag_7\n      tag_8\n      jump\t// in\n    tag_7:\n      stop\n        /* \"contracts/dapp.sol\":123:200  function getCount() public view returns(uint) {\r... */\n    tag_6:\n        /* \"contracts/dapp.sol\":163:167  uint */\n      0x00\n        /* \"contracts/dapp.sol\":187:192  count */\n      dup1\n      sload\n        /* \"contracts/dapp.sol\":180:192  return count */\n      swap1\n      pop\n        /* \"contracts/dapp.sol\":123:200  function getCount() public view returns(uint) {\r... */\n      swap1\n      jump\t// out\n        /* \"contracts/dapp.sol\":208:277  function incrementCount() public {\r... */\n    tag_8:\n        /* \"contracts/dapp.sol\":268:269  1 */\n      0x01\n        /* \"contracts/dapp.sol\":260:265  count */\n      sload(0x00)\n        /* \"contracts/dapp.sol\":260:269  count + 1 */\n      add\n        /* \"contracts/dapp.sol\":252:257  count */\n      0x00\n        /* \"contracts/dapp.sol\":252:269  count = count + 1 */\n      dup2\n      swap1\n      sstore\n      pop\n        /* \"contracts/dapp.sol\":208:277  function incrementCount() public {\r... */\n      jump\t// out\n\n    auxdata: 0xa2646970667358221220149b28641e4e36696e36dc0b96494a1ac1d14643da08c1a65dfa92c57525e5ac64736f6c63430006010033\n}\n",
				"bytecode": {
					"linkReferences": {},
					"object": "6080604052348015600f57600080fd5b506000808190555060a8806100256000396000f3fe6080604052348015600f57600080fd5b506004361060325760003560e01c8063a87d942c146037578063e5071b8e146053575b600080fd5b603d605b565b6040518082815260200191505060405180910390f35b60596064565b005b60008054905090565b60016000540160008190555056fea2646970667358221220149b28641e4e36696e36dc0b96494a1ac1d14643da08c1a65dfa92c57525e5ac64736f6c63430006010033",
					"opcodes": "PUSH1 0x80 PUSH1 0x40 MSTORE CALLVALUE DUP1 ISZERO PUSH1 0xF JUMPI PUSH1 0x0 DUP1 REVERT JUMPDEST POP PUSH1 0x0 DUP1 DUP2 SWAP1 SSTORE POP PUSH1 0xA8 DUP1 PUSH2 0x25 PUSH1 0x0 CODECOPY PUSH1 0x0 RETURN INVALID PUSH1 0x80 PUSH1 0x40 MSTORE CALLVALUE DUP1 ISZERO PUSH1 0xF JUMPI PUSH1 0x0 DUP1 REVERT JUMPDEST POP PUSH1 0x4 CALLDATASIZE LT PUSH1 0x32 JUMPI PUSH1 0x0 CALLDATALOAD PUSH1 0xE0 SHR DUP1 PUSH4 0xA87D942C EQ PUSH1 0x37 JUMPI DUP1 PUSH4 0xE5071B8E EQ PUSH1 0x53 JUMPI JUMPDEST PUSH1 0x0 DUP1 REVERT JUMPDEST PUSH1 0x3D PUSH1 0x5B JUMP JUMPDEST PUSH1 0x40 MLOAD DUP1 DUP3 DUP2 MSTORE PUSH1 0x20 ADD SWAP2 POP POP PUSH1 0x40 MLOAD DUP1 SWAP2 SUB SWAP1 RETURN JUMPDEST PUSH1 0x59 PUSH1 0x64 JUMP JUMPDEST STOP JUMPDEST PUSH1 0x0 DUP1 SLOAD SWAP1 POP SWAP1 JUMP JUMPDEST PUSH1 0x1 PUSH1 0x0 SLOAD ADD PUSH1 0x0 DUP2 SWAP1 SSTORE POP JUMP INVALID LOG2 PUSH5 0x6970667358 0x22 SLT KECCAK256 EQ SWAP12 0x28 PUSH5 0x1E4E36696E CALLDATASIZE 0xDC SIGNEXTEND SWAP7 0x49 0x4A BYTE 0xC1 0xD1 CHAINID NUMBER 0xDA ADDMOD 0xC1 0xA6 0x5D STATICCALL SWAP3 0xC5 PUSH22 0x25E5AC64736F6C634300060100330000000000000000 "
				},
				"gasEstimates": {
					"creation": {
						"codeDepositCost": "33600",
						"executionCost": "5101",
						"totalCost": "38701"
					},
					"external": {
						"getCount()": "991",
						"incrementCount()": "20964"
					}
				},
				"methodIdentifiers": {
					"getCount()": "a87d942c",
					"incrementCount()": "e5071b8e"
				}
			},
			"userdoc": {
				"methods": {}
			}
		}
	}
}